:100000000C945D000C9485000C9485000C94850084
:100010000C9485000C9485000C9485000C9485004C
:100020000C9485000C9485000C9485000C9485003C
:100030000C9485000C9485000C9485000C9485002C
:100040000C9467020C9485000C9485000C94850038
:100050000C9485000C9485000C9485000C9485000C
:100060000C9485000C94850000000008000201003B
:100070000003040700000000000000000000000072
:10008000250028002B0000000000240027002A0083
:10009000040404040404040402020202020203032E
:1000A0000303030301020408102040800102040836
:1000B0001020010204081020290311241FBECFEFD5
:1000C000D8E0DEBFCDBF11E0A0E0B1E0EEE9F6E0A0
:1000D00002C005900D92AA32B107D9F721E0AAE239
:1000E000B1E001C01D92AB34B207E1F710E0CDE5FD
:1000F000D0E004C02197FE010E944703CC35D10710
:10010000C9F70E94B1020C944D030C94000090E0DA
:10011000FC01EC55FF4F249180579F4FFC018491C7
:10012000882399F090E0880F991FFC01EA57FF4F50
:10013000A591B491FC01E458FF4F859194918FB73C
:10014000F894EC91E22BEC938FBF0895AF92BF929D
:10015000CF92DF92EF92FF920F931F93CF93DF9393
:100160006C017B018B01040F151FEB015E01AE18C2
:10017000BF08C017D10759F06991D601ED91FC91E4
:100180000190F081E02DC6010995892B79F7C50111
:10019000DF91CF911F910F91FF90EF90DF90CF9063
:1001A000BF90AF90089590E0FC01E859FF4F249173
:1001B000FC01EC55FF4F3491FC01E057FF4FE491F7
:1001C000EE23C9F0222339F0233001F1A8F42130C5
:1001D00019F1223029F1F0E0EE0FFF1FE458FF4F34
:1001E000A591B4918FB7F894EC91611126C0309528
:1001F0003E233C938FBF08952730A9F02830C9F0E3
:10020000243049F7809180008F7D03C08091800069
:100210008F7780938000DFCF84B58F7784BDDBCF6D
:1002200084B58F7DFBCF8091B0008F778093B00035
:10023000D2CF8091B0008F7DF9CF3E2BDACF0895D9
:1002400090E080E00895CF93DF93EC0160E08E8131
:100250000E94D30061E08E810E94D30060E08E8115
:100260000E94D3008BE891E00197F1F7DF91CF91E5
:100270000895CF92DF92EF92FF920F931F93CF9347
:10028000DF936C017C0187E0E80EF11CD0E0C0E058
:10029000062F10E0B8010C2E02C0759567950A94E0
:1002A000E2F76170F70181917F010E94D3002196EE
:1002B000C430D10579F7C601DF91CF911F910F911D
:1002C000FF90EF90DF90CF900C942301CF92DF92BC
:1002D000EF92FF920F931F93CF93DF93EC01F62ED3
:1002E000642F8C810E94D3008D818F3F19F060E0D4
:1002F0000E94D3000F2D10E08F8584FF25C06E0172
:1003000087E0C80ED11CF12CE12CB8010E2C02C0E4
:10031000759567950A94E2F76170F60181916F0116
:100320000E94D300FFEFEF1AFF0A88E0E816F104FD
:1003300061F7CE01DF91CF911F910F91FF90EF9068
:10034000DF90CF900C942301B80184E075956795F8
:100350008A95E1F7CE010E9439016F2DCE01DF9120
:10036000CF911F910F91FF90EF90DF90CF900C9461
:10037000390140E0682F83E391E00C946601CF934C
:10038000DF93823029F4909142019860909342016A
:10039000809346011092470180E48093480180E1F8
:1003A0008093490180E580934A01809137010E9442
:1003B0008700809138018F3F11F00E948700809163
:1003C00039010E948700C3E3D1E09E0123533140ED
:1003D0008091420184FD0AC084E090E021962817B4
:1003E00039073CF48E810E948700EFCF88E090E0CF
:1003F000F5CF8BE39DE00197F1F760E08091370145
:100400000E94D30060E0809139010E94D300809166
:1004100038018F3F19F060E00E94D30080914201C3
:1004200084FD39C063E083E391E00E943901CBE4AD
:10043000D6E4CE010197F1F763E083E391E00E94F7
:1004400039012197F1F763E083E391E00E943901DC
:1004500083E592E00197F1F762E083E391E00E9487
:1004600039018091420180620E94B90184E0809349
:1004700043018CE00E94B90181E00E94B9018BE345
:100480009FE10197F1F782E08093440186E0DF91DC
:10049000CF910C94B90180620E94B9018BE496E47B
:1004A0000197F1F78091420180620E94B90183E5D2
:1004B00092E00197F1F78091420180620E94B901B8
:1004C000D0CF41E00E94660181E090E008951F9244
:1004D0000F920FB60F9211242F933F938F939F93F8
:1004E000AF93BF9380912F0190913001A091310182
:1004F000B091320130912E0123E0230F2D3758F5B2
:100500000196A11DB11D20932E0180932F01909380
:100510003001A0933101B093320180912A01909172
:100520002B01A0912C01B0912D010196A11DB11DAF
:1005300080932A0190932B01A0932C01B0932D015D
:10054000BF91AF919F918F913F912F910F900FBECF
:100550000F901F90189526E8230F0296A11DB11D3C
:10056000D2CF789484B5826084BD84B5816084BD27
:1005700085B5826085BD85B5816085BD80916E0041
:10058000816080936E001092810080918100826072
:1005900080938100809181008160809381008091AF
:1005A00080008160809380008091B100846080939E
:1005B000B1008091B00081608093B00080917A009A
:1005C000846080937A0080917A00826080937A00C0
:1005D00080917A00816080937A0080917A008068AF
:1005E00080937A001092C10082E00E94BF01C0E0B7
:1005F000D0E0E1E0809146018111E0E0E195F0E09A
:10060000ED5CFE4F848980680E94B9014DE050E0A6
:100610006CE071E083E391E00E94A600E091460166
:10062000E230A8F4E150F0E0ED5CFE4F8489806890
:100630000E94B9014EE050E06AE171E083E391E08D
:100640000E94A6002097A9F20E940000D2CFE1E00C
:10065000EACFE3E3F1E01382128284E091E0918338
:1006600080838CE084838FEF85838BE086838AE0B0
:10067000878389E0808788E0818787E08287138687
:10068000148615861686178681E00C94BF01EE0F3E
:0E069000FF1F0590F491E02D0994F894FFCF20
:10069E00000000006102A60020011F0148656C6C7D
:1006AE006F2C20576F726C642100436F646520615C
:0A06BE006E6420526F626F7400003A
:00000001FF
